{
  "contractName": "Land",
  "abi": [
    {
      "inputs": [],
      "stateMutability": "nonpayable",
      "type": "constructor"
    },
    {
      "inputs": [
        {
          "internalType": "address",
          "name": "",
          "type": "address"
        }
      ],
      "name": "InspectorMapping",
      "outputs": [
        {
          "internalType": "uint256",
          "name": "id",
          "type": "uint256"
        },
        {
          "internalType": "address",
          "name": "_addr",
          "type": "address"
        },
        {
          "internalType": "string",
          "name": "name",
          "type": "string"
        },
        {
          "internalType": "uint256",
          "name": "age",
          "type": "uint256"
        },
        {
          "internalType": "string",
          "name": "designation",
          "type": "string"
        },
        {
          "internalType": "string",
          "name": "city",
          "type": "string"
        }
      ],
      "stateMutability": "view",
      "type": "function",
      "constant": true
    },
    {
      "inputs": [
        {
          "internalType": "uint256",
          "name": "",
          "type": "uint256"
        }
      ],
      "name": "LandRequestMapping",
      "outputs": [
        {
          "internalType": "uint256",
          "name": "reqId",
          "type": "uint256"
        },
        {
          "internalType": "address payable",
          "name": "sellerId",
          "type": "address"
        },
        {
          "internalType": "address payable",
          "name": "buyerId",
          "type": "address"
        },
        {
          "internalType": "uint256",
          "name": "landId",
          "type": "uint256"
        },
        {
          "internalType": "enum Land.reqStatus",
          "name": "requestStatus",
          "type": "uint8"
        },
        {
          "internalType": "bool",
          "name": "isPaymentDone",
          "type": "bool"
        }
      ],
      "stateMutability": "view",
      "type": "function",
      "constant": true
    },
    {
      "inputs": [
        {
          "internalType": "address",
          "name": "",
          "type": "address"
        }
      ],
      "name": "UserMapping",
      "outputs": [
        {
          "internalType": "address",
          "name": "id",
          "type": "address"
        },
        {
          "internalType": "string",
          "name": "name",
          "type": "string"
        },
        {
          "internalType": "uint256",
          "name": "age",
          "type": "uint256"
        },
        {
          "internalType": "string",
          "name": "city",
          "type": "string"
        },
        {
          "internalType": "string",
          "name": "aadharNumber",
          "type": "string"
        },
        {
          "internalType": "string",
          "name": "panNumber",
          "type": "string"
        },
        {
          "internalType": "string",
          "name": "document",
          "type": "string"
        },
        {
          "internalType": "string",
          "name": "email",
          "type": "string"
        },
        {
          "internalType": "bool",
          "name": "isUserVerified",
          "type": "bool"
        }
      ],
      "stateMutability": "view",
      "type": "function",
      "constant": true
    },
    {
      "inputs": [],
      "name": "documentId",
      "outputs": [
        {
          "internalType": "uint256",
          "name": "",
          "type": "uint256"
        }
      ],
      "stateMutability": "view",
      "type": "function",
      "constant": true
    },
    {
      "inputs": [
        {
          "internalType": "uint256",
          "name": "",
          "type": "uint256"
        }
      ],
      "name": "lands",
      "outputs": [
        {
          "internalType": "uint256",
          "name": "id",
          "type": "uint256"
        },
        {
          "internalType": "uint256",
          "name": "area",
          "type": "uint256"
        },
        {
          "internalType": "string",
          "name": "landAddress",
          "type": "string"
        },
        {
          "internalType": "uint256",
          "name": "landPrice",
          "type": "uint256"
        },
        {
          "internalType": "string",
          "name": "allLatitudeLongitude",
          "type": "string"
        },
        {
          "internalType": "uint256",
          "name": "propertyPID",
          "type": "uint256"
        },
        {
          "internalType": "string",
          "name": "physicalSurveyNumber",
          "type": "string"
        },
        {
          "internalType": "string",
          "name": "document",
          "type": "string"
        },
        {
          "internalType": "bool",
          "name": "isforSell",
          "type": "bool"
        },
        {
          "internalType": "address payable",
          "name": "ownerAddress",
          "type": "address"
        },
        {
          "internalType": "bool",
          "name": "isLandVerified",
          "type": "bool"
        }
      ],
      "stateMutability": "view",
      "type": "function",
      "constant": true
    },
    {
      "inputs": [],
      "name": "landsCount",
      "outputs": [
        {
          "internalType": "uint256",
          "name": "",
          "type": "uint256"
        }
      ],
      "stateMutability": "view",
      "type": "function",
      "constant": true
    },
    {
      "inputs": [],
      "name": "userCount",
      "outputs": [
        {
          "internalType": "uint256",
          "name": "",
          "type": "uint256"
        }
      ],
      "stateMutability": "view",
      "type": "function",
      "constant": true
    },
    {
      "inputs": [
        {
          "internalType": "address",
          "name": "_addr",
          "type": "address"
        }
      ],
      "name": "isContractOwner",
      "outputs": [
        {
          "internalType": "bool",
          "name": "",
          "type": "bool"
        }
      ],
      "stateMutability": "view",
      "type": "function",
      "constant": true
    },
    {
      "inputs": [
        {
          "internalType": "address",
          "name": "_addr",
          "type": "address"
        }
      ],
      "name": "changeContractOwner",
      "outputs": [],
      "stateMutability": "nonpayable",
      "type": "function"
    },
    {
      "inputs": [
        {
          "internalType": "address",
          "name": "_addr",
          "type": "address"
        },
        {
          "internalType": "string",
          "name": "_name",
          "type": "string"
        },
        {
          "internalType": "uint256",
          "name": "_age",
          "type": "uint256"
        },
        {
          "internalType": "string",
          "name": "_designation",
          "type": "string"
        },
        {
          "internalType": "string",
          "name": "_city",
          "type": "string"
        }
      ],
      "name": "addLandInspector",
      "outputs": [
        {
          "internalType": "bool",
          "name": "",
          "type": "bool"
        }
      ],
      "stateMutability": "nonpayable",
      "type": "function"
    },
    {
      "inputs": [],
      "name": "ReturnAllLandIncpectorList",
      "outputs": [
        {
          "internalType": "address[]",
          "name": "",
          "type": "address[]"
        }
      ],
      "stateMutability": "view",
      "type": "function",
      "constant": true
    },
    {
      "inputs": [
        {
          "internalType": "address",
          "name": "_addr",
          "type": "address"
        }
      ],
      "name": "removeLandInspector",
      "outputs": [],
      "stateMutability": "nonpayable",
      "type": "function"
    },
    {
      "inputs": [
        {
          "internalType": "address",
          "name": "_id",
          "type": "address"
        }
      ],
      "name": "isLandInspector",
      "outputs": [
        {
          "internalType": "bool",
          "name": "",
          "type": "bool"
        }
      ],
      "stateMutability": "view",
      "type": "function",
      "constant": true
    },
    {
      "inputs": [
        {
          "internalType": "address",
          "name": "_addr",
          "type": "address"
        }
      ],
      "name": "isUserRegistered",
      "outputs": [
        {
          "internalType": "bool",
          "name": "",
          "type": "bool"
        }
      ],
      "stateMutability": "view",
      "type": "function",
      "constant": true
    },
    {
      "inputs": [
        {
          "internalType": "string",
          "name": "_name",
          "type": "string"
        },
        {
          "internalType": "uint256",
          "name": "_age",
          "type": "uint256"
        },
        {
          "internalType": "string",
          "name": "_city",
          "type": "string"
        },
        {
          "internalType": "string",
          "name": "_aadharNumber",
          "type": "string"
        },
        {
          "internalType": "string",
          "name": "_panNumber",
          "type": "string"
        },
        {
          "internalType": "string",
          "name": "_document",
          "type": "string"
        },
        {
          "internalType": "string",
          "name": "_email",
          "type": "string"
        }
      ],
      "name": "registerUser",
      "outputs": [],
      "stateMutability": "nonpayable",
      "type": "function"
    },
    {
      "inputs": [
        {
          "internalType": "address",
          "name": "_userId",
          "type": "address"
        }
      ],
      "name": "verifyUser",
      "outputs": [],
      "stateMutability": "nonpayable",
      "type": "function"
    },
    {
      "inputs": [
        {
          "internalType": "address",
          "name": "id",
          "type": "address"
        }
      ],
      "name": "isUserVerified",
      "outputs": [
        {
          "internalType": "bool",
          "name": "",
          "type": "bool"
        }
      ],
      "stateMutability": "view",
      "type": "function",
      "constant": true
    },
    {
      "inputs": [],
      "name": "ReturnAllUserList",
      "outputs": [
        {
          "internalType": "address[]",
          "name": "",
          "type": "address[]"
        }
      ],
      "stateMutability": "view",
      "type": "function",
      "constant": true
    },
    {
      "inputs": [
        {
          "internalType": "uint256",
          "name": "_area",
          "type": "uint256"
        },
        {
          "internalType": "string",
          "name": "_address",
          "type": "string"
        },
        {
          "internalType": "uint256",
          "name": "landPrice",
          "type": "uint256"
        },
        {
          "internalType": "string",
          "name": "_allLatiLongi",
          "type": "string"
        },
        {
          "internalType": "uint256",
          "name": "_propertyPID",
          "type": "uint256"
        },
        {
          "internalType": "string",
          "name": "_surveyNum",
          "type": "string"
        },
        {
          "internalType": "string",
          "name": "_document",
          "type": "string"
        }
      ],
      "name": "addLand",
      "outputs": [],
      "stateMutability": "nonpayable",
      "type": "function"
    },
    {
      "inputs": [],
      "name": "ReturnAllLandList",
      "outputs": [
        {
          "internalType": "uint256[]",
          "name": "",
          "type": "uint256[]"
        }
      ],
      "stateMutability": "view",
      "type": "function",
      "constant": true
    },
    {
      "inputs": [
        {
          "internalType": "uint256",
          "name": "_id",
          "type": "uint256"
        }
      ],
      "name": "verifyLand",
      "outputs": [],
      "stateMutability": "nonpayable",
      "type": "function"
    },
    {
      "inputs": [
        {
          "internalType": "uint256",
          "name": "id",
          "type": "uint256"
        }
      ],
      "name": "isLandVerified",
      "outputs": [
        {
          "internalType": "bool",
          "name": "",
          "type": "bool"
        }
      ],
      "stateMutability": "view",
      "type": "function",
      "constant": true
    },
    {
      "inputs": [
        {
          "internalType": "address",
          "name": "id",
          "type": "address"
        }
      ],
      "name": "myAllLands",
      "outputs": [
        {
          "internalType": "uint256[]",
          "name": "",
          "type": "uint256[]"
        }
      ],
      "stateMutability": "view",
      "type": "function",
      "constant": true
    },
    {
      "inputs": [
        {
          "internalType": "uint256",
          "name": "id",
          "type": "uint256"
        }
      ],
      "name": "makeItforSell",
      "outputs": [],
      "stateMutability": "nonpayable",
      "type": "function"
    },
    {
      "inputs": [
        {
          "internalType": "uint256",
          "name": "_landId",
          "type": "uint256"
        }
      ],
      "name": "requestforBuy",
      "outputs": [],
      "stateMutability": "nonpayable",
      "type": "function"
    },
    {
      "inputs": [],
      "name": "myReceivedLandRequests",
      "outputs": [
        {
          "internalType": "uint256[]",
          "name": "",
          "type": "uint256[]"
        }
      ],
      "stateMutability": "view",
      "type": "function",
      "constant": true
    },
    {
      "inputs": [],
      "name": "mySentLandRequests",
      "outputs": [
        {
          "internalType": "uint256[]",
          "name": "",
          "type": "uint256[]"
        }
      ],
      "stateMutability": "view",
      "type": "function",
      "constant": true
    },
    {
      "inputs": [
        {
          "internalType": "uint256",
          "name": "_requestId",
          "type": "uint256"
        }
      ],
      "name": "acceptRequest",
      "outputs": [],
      "stateMutability": "nonpayable",
      "type": "function"
    },
    {
      "inputs": [
        {
          "internalType": "uint256",
          "name": "_requestId",
          "type": "uint256"
        }
      ],
      "name": "rejectRequest",
      "outputs": [],
      "stateMutability": "nonpayable",
      "type": "function"
    },
    {
      "inputs": [
        {
          "internalType": "uint256",
          "name": "id",
          "type": "uint256"
        }
      ],
      "name": "requesteStatus",
      "outputs": [
        {
          "internalType": "bool",
          "name": "",
          "type": "bool"
        }
      ],
      "stateMutability": "view",
      "type": "function",
      "constant": true
    },
    {
      "inputs": [
        {
          "internalType": "uint256",
          "name": "id",
          "type": "uint256"
        }
      ],
      "name": "landPriceFun",
      "outputs": [
        {
          "internalType": "uint256",
          "name": "",
          "type": "uint256"
        }
      ],
      "stateMutability": "view",
      "type": "function",
      "constant": true
    },
    {
      "inputs": [
        {
          "internalType": "uint256",
          "name": "_requestId",
          "type": "uint256"
        }
      ],
      "name": "makePayment",
      "outputs": [],
      "stateMutability": "payable",
      "type": "function",
      "payable": true
    },
    {
      "inputs": [],
      "name": "returnPaymentDoneList",
      "outputs": [
        {
          "internalType": "uint256[]",
          "name": "",
          "type": "uint256[]"
        }
      ],
      "stateMutability": "view",
      "type": "function",
      "constant": true
    },
    {
      "inputs": [
        {
          "internalType": "uint256",
          "name": "_requestId",
          "type": "uint256"
        },
        {
          "internalType": "string",
          "name": "documentUrl",
          "type": "string"
        }
      ],
      "name": "transferOwnership",
      "outputs": [
        {
          "internalType": "bool",
          "name": "",
          "type": "bool"
        }
      ],
      "stateMutability": "nonpayable",
      "type": "function"
    },
    {
      "inputs": [
        {
          "internalType": "address payable",
          "name": "_reveiver",
          "type": "address"
        }
      ],
      "name": "makePaymentTestFun",
      "outputs": [],
      "stateMutability": "payable",
      "type": "function",
      "payable": true
    }
  ],
  "bytecode": "0x608060405234801561001057600080fd5b50336000806101000a81548173ffffffffffffffffffffffffffffffffffffffff021916908373ffffffffffffffffffffffffffffffffffffffff160217905550614705806100606000396000f3fe6080604052600436106102045760003560e01c8063a846fc8f11610118578063d3b368c0116100a0578063e165af871161006f578063e165af871461149b578063e261f1e514611502578063edfbe24714611745578063f9c43bdf14611b0a578063fa02454914611b4557610204565b8063d3b368c014611095578063d61ff68c146110d0578063d8513de4146113e3578063de1176881461143457610204565b8063c6dcdc37116100e7578063c6dcdc3714610a53578063ccfdc19b14610c89578063cfb0ba7a14610f34578063d196ebf214610f83578063d251839b1461102957610204565b8063a846fc8f1461089a578063ace417e014610906578063b10a30ed1461096d578063c26e11eb14610a1857610204565b80634d8131201161019b5780636cbf6cf81161016a5780636cbf6cf81461071d5780637517e00f1461076e57806378f7c83f146107bf578063995a8d96146107ea5780639c32e3b41461082e57610204565b80634d813120146104655780635114cb52146104b6578063553a998d146104e457806364efa0021461055057610204565b80632d7788db116101d75780632d7788db146103325780633ead67b51461036d578063499701b2146103be5780634ba1f0981461042a57610204565b806307973ccf14610209578063163f7522146102345780631c9afd0f1461029b57806323393d77146102c6575b600080fd5b34801561021557600080fd5b5061021e611c2d565b6040518082815260200191505060405180910390f35b34801561024057600080fd5b506102836004803603602081101561025757600080fd5b81019080803573ffffffffffffffffffffffffffffffffffffffff169060200190929190505050611c33565b60405180821515815260200191505060405180910390f35b3480156102a757600080fd5b506102b0611c9a565b6040518082815260200191505060405180910390f35b3480156102d257600080fd5b506102db611ca0565b6040518080602001828103825283818151815260200191508051906020019060200280838360005b8381101561031e578082015181840152602081019050610303565b505050509050019250505060405180910390f35b34801561033e57600080fd5b5061036b6004803603602081101561035557600080fd5b8101908080359060200190929190505050611d0a565b005b34801561037957600080fd5b506103bc6004803603602081101561039057600080fd5b81019080803573ffffffffffffffffffffffffffffffffffffffff169060200190929190505050611db3565b005b3480156103ca57600080fd5b506103d3611eb7565b6040518080602001828103825283818151815260200191508051906020019060200280838360005b838110156104165780820151818401526020810190506103fb565b505050509050019250505060405180910390f35b34801561043657600080fd5b506104636004803603602081101561044d57600080fd5b8101908080359060200190929190505050611f4c565b005b34801561047157600080fd5b506104b46004803603602081101561048857600080fd5b81019080803573ffffffffffffffffffffffffffffffffffffffff169060200190929190505050611ff5565b005b6104e2600480360360208110156104cc57600080fd5b8101908080359060200190929190505050612065565b005b3480156104f057600080fd5b506104f9612250565b6040518080602001828103825283818151815260200191508051906020019060200280838360005b8381101561053c578082015181840152602081019050610521565b505050509050019250505060405180910390f35b34801561055c57600080fd5b5061059f6004803603602081101561057357600080fd5b81019080803573ffffffffffffffffffffffffffffffffffffffff1690602001909291905050506122f0565b604051808781526020018673ffffffffffffffffffffffffffffffffffffffff168152602001806020018581526020018060200180602001848103845288818151815260200191508051906020019080838360005b8381101561060f5780820151818401526020810190506105f4565b50505050905090810190601f16801561063c5780820380516001836020036101000a031916815260200191505b50848103835286818151815260200191508051906020019080838360005b8381101561067557808201518184015260208101905061065a565b50505050905090810190601f1680156106a25780820380516001836020036101000a031916815260200191505b50848103825285818151815260200191508051906020019080838360005b838110156106db5780820151818401526020810190506106c0565b50505050905090810190601f1680156107085780820380516001836020036101000a031916815260200191505b50995050505050505050505060405180910390f35b34801561072957600080fd5b506107566004803603602081101561074057600080fd5b8101908080359060200190929190505050612514565b60405180821515815260200191505060405180910390f35b34801561077a57600080fd5b506107bd6004803603602081101561079157600080fd5b81019080803573ffffffffffffffffffffffffffffffffffffffff169060200190929190505050612541565b005b3480156107cb57600080fd5b506107d46128da565b6040518082815260200191505060405180910390f35b61082c6004803603602081101561080057600080fd5b81019080803573ffffffffffffffffffffffffffffffffffffffff1690602001909291905050506128e0565b005b34801561083a57600080fd5b5061084361292a565b6040518080602001828103825283818151815260200191508051906020019060200280838360005b8381101561088657808201518184015260208101905061086b565b505050509050019250505060405180910390f35b3480156108a657600080fd5b506108af6129bf565b6040518080602001828103825283818151815260200191508051906020019060200280838360005b838110156108f25780820151818401526020810190506108d7565b505050509050019250505060405180910390f35b34801561091257600080fd5b506109556004803603602081101561092957600080fd5b81019080803573ffffffffffffffffffffffffffffffffffffffff169060200190929190505050612a29565b60405180821515815260200191505060405180910390f35b34801561097957600080fd5b506109a66004803603602081101561099057600080fd5b8101908080359060200190929190505050612a82565b604051808781526020018673ffffffffffffffffffffffffffffffffffffffff1681526020018573ffffffffffffffffffffffffffffffffffffffff1681526020018481526020018360048111156109fa57fe5b81526020018215158152602001965050505050505060405180910390f35b348015610a2457600080fd5b50610a5160048036036020811015610a3b57600080fd5b8101908080359060200190929190505050612b18565b005b348015610a5f57600080fd5b50610c71600480360360a0811015610a7657600080fd5b81019080803573ffffffffffffffffffffffffffffffffffffffff16906020019092919080359060200190640100000000811115610ab357600080fd5b820183602082011115610ac557600080fd5b80359060200191846001830284011164010000000083111715610ae757600080fd5b91908080601f016020809104026020016040519081016040528093929190818152602001838380828437600081840152601f19601f8201169050808301925050505050505091929192908035906020019092919080359060200190640100000000811115610b5457600080fd5b820183602082011115610b6657600080fd5b80359060200191846001830284011164010000000083111715610b8857600080fd5b91908080601f016020809104026020016040519081016040528093929190818152602001838380828437600081840152601f19601f82011690508083019250505050505050919291929080359060200190640100000000811115610beb57600080fd5b820183602082011115610bfd57600080fd5b80359060200191846001830284011164010000000083111715610c1f57600080fd5b91908080601f016020809104026020016040519081016040528093929190818152602001838380828437600081840152601f19601f820116905080830192505050505050509192919290505050612bb8565b60405180821515815260200191505060405180910390f35b348015610c9557600080fd5b50610f32600480360360e0811015610cac57600080fd5b810190808035906020019092919080359060200190640100000000811115610cd357600080fd5b820183602082011115610ce557600080fd5b80359060200191846001830284011164010000000083111715610d0757600080fd5b91908080601f016020809104026020016040519081016040528093929190818152602001838380828437600081840152601f19601f8201169050808301925050505050505091929192908035906020019092919080359060200190640100000000811115610d7457600080fd5b820183602082011115610d8657600080fd5b80359060200191846001830284011164010000000083111715610da857600080fd5b91908080601f016020809104026020016040519081016040528093929190818152602001838380828437600081840152601f19601f8201169050808301925050505050505091929192908035906020019092919080359060200190640100000000811115610e1557600080fd5b820183602082011115610e2757600080fd5b80359060200191846001830284011164010000000083111715610e4957600080fd5b91908080601f016020809104026020016040519081016040528093929190818152602001838380828437600081840152601f19601f82011690508083019250505050505050919291929080359060200190640100000000811115610eac57600080fd5b820183602082011115610ebe57600080fd5b80359060200191846001830284011164010000000083111715610ee057600080fd5b91908080601f016020809104026020016040519081016040528093929190818152602001838380828437600081840152601f19601f820116905080830192505050505050509192919290505050612e82565b005b348015610f4057600080fd5b50610f6d60048036036020811015610f5757600080fd5b81019080803590602001909291905050506130fc565b6040518082815260200191505060405180910390f35b348015610f8f57600080fd5b50610fd260048036036020811015610fa657600080fd5b81019080803573ffffffffffffffffffffffffffffffffffffffff16906020019092919050505061311c565b6040518080602001828103825283818151815260200191508051906020019060200280838360005b83811015611015578082015181840152602081019050610ffa565b505050509050019250505060405180910390f35b34801561103557600080fd5b5061103e6131b3565b6040518080602001828103825283818151815260200191508051906020019060200280838360005b83811015611081578082015181840152602081019050611066565b505050509050019250505060405180910390f35b3480156110a157600080fd5b506110ce600480360360208110156110b857600080fd5b8101908080359060200190929190505050613253565b005b3480156110dc57600080fd5b5061111f600480360360208110156110f357600080fd5b81019080803573ffffffffffffffffffffffffffffffffffffffff169060200190929190505050613534565b604051808a73ffffffffffffffffffffffffffffffffffffffff168152602001806020018981526020018060200180602001806020018060200180602001881515815260200187810387528f818151815260200191508051906020019080838360005b8381101561119d578082015181840152602081019050611182565b50505050905090810190601f1680156111ca5780820380516001836020036101000a031916815260200191505b5087810386528d818151815260200191508051906020019080838360005b838110156112035780820151818401526020810190506111e8565b50505050905090810190601f1680156112305780820380516001836020036101000a031916815260200191505b5087810385528c818151815260200191508051906020019080838360005b8381101561126957808201518184015260208101905061124e565b50505050905090810190601f1680156112965780820380516001836020036101000a031916815260200191505b5087810384528b818151815260200191508051906020019080838360005b838110156112cf5780820151818401526020810190506112b4565b50505050905090810190601f1680156112fc5780820380516001836020036101000a031916815260200191505b5087810383528a818151815260200191508051906020019080838360005b8381101561133557808201518184015260208101905061131a565b50505050905090810190601f1680156113625780820380516001836020036101000a031916815260200191505b50878103825289818151815260200191508051906020019080838360005b8381101561139b578082015181840152602081019050611380565b50505050905090810190601f1680156113c85780820380516001836020036101000a031916815260200191505b509f5050505050505050505050505050505060405180910390f35b3480156113ef57600080fd5b5061141c6004803603602081101561140657600080fd5b810190808035906020019092919050505061393f565b60405180821515815260200191505060405180910390f35b34801561144057600080fd5b506114836004803603602081101561145757600080fd5b81019080803573ffffffffffffffffffffffffffffffffffffffff16906020019092919050505061396c565b60405180821515815260200191505060405180910390f35b3480156114a757600080fd5b506114ea600480360360208110156114be57600080fd5b81019080803573ffffffffffffffffffffffffffffffffffffffff1690602001909291905050506139d6565b60405180821515815260200191505060405180910390f35b34801561150e57600080fd5b5061153b6004803603602081101561152557600080fd5b8101908080359060200190929190505050613a3d565b604051808c81526020018b8152602001806020018a815260200180602001898152602001806020018060200188151581526020018773ffffffffffffffffffffffffffffffffffffffff168152602001861515815260200185810385528e818151815260200191508051906020019080838360005b838110156115cb5780820151818401526020810190506115b0565b50505050905090810190601f1680156115f85780820380516001836020036101000a031916815260200191505b5085810384528c818151815260200191508051906020019080838360005b83811015611631578082015181840152602081019050611616565b50505050905090810190601f16801561165e5780820380516001836020036101000a031916815260200191505b5085810383528a818151815260200191508051906020019080838360005b8381101561169757808201518184015260208101905061167c565b50505050905090810190601f1680156116c45780820380516001836020036101000a031916815260200191505b50858103825289818151815260200191508051906020019080838360005b838110156116fd5780820151818401526020810190506116e2565b50505050905090810190601f16801561172a5780820380516001836020036101000a031916815260200191505b509f5050505050505050505050505050505060405180910390f35b34801561175157600080fd5b50611b08600480360360e081101561176857600080fd5b810190808035906020019064010000000081111561178557600080fd5b82018360208201111561179757600080fd5b803590602001918460018302840111640100000000831117156117b957600080fd5b91908080601f016020809104026020016040519081016040528093929190818152602001838380828437600081840152601f19601f820116905080830192505050505050509192919290803590602001909291908035906020019064010000000081111561182657600080fd5b82018360208201111561183857600080fd5b8035906020019184600183028401116401000000008311171561185a57600080fd5b91908080601f016020809104026020016040519081016040528093929190818152602001838380828437600081840152601f19601f820116905080830192505050505050509192919290803590602001906401000000008111156118bd57600080fd5b8201836020820111156118cf57600080fd5b803590602001918460018302840111640100000000831117156118f157600080fd5b91908080601f016020809104026020016040519081016040528093929190818152602001838380828437600081840152601f19601f8201169050808301925050505050505091929192908035906020019064010000000081111561195457600080fd5b82018360208201111561196657600080fd5b8035906020019184600183028401116401000000008311171561198857600080fd5b91908080601f016020809104026020016040519081016040528093929190818152602001838380828437600081840152601f19601f820116905080830192505050505050509192919290803590602001906401000000008111156119eb57600080fd5b8201836020820111156119fd57600080fd5b80359060200191846001830284011164010000000083111715611a1f57600080fd5b91908080601f016020809104026020016040519081016040528093929190818152602001838380828437600081840152601f19601f82011690508083019250505050505050919291929080359060200190640100000000811115611a8257600080fd5b820183602082011115611a9457600080fd5b80359060200191846001830284011164010000000083111715611ab657600080fd5b91908080601f016020809104026020016040519081016040528093929190818152602001838380828437600081840152601f19601f820116905080830192505050505050509192919290505050613d31565b005b348015611b1657600080fd5b50611b4360048036036020811015611b2d57600080fd5b810190808035906020019092919050505061407f565b005b348015611b5157600080fd5b50611c1560048036036040811015611b6857600080fd5b810190808035906020019092919080359060200190640100000000811115611b8f57600080fd5b820183602082011115611ba157600080fd5b80359060200191846001830284011164010000000083111715611bc357600080fd5b91908080601f016020809104026020016040519081016040528093929190818152602001838380828437600081840152601f19601f8201169050808301925050505050505091929192905050506140c3565b60405180821515815260200191505060405180910390f35b60025481565b6000600c60008373ffffffffffffffffffffffffffffffffffffffff1673ffffffffffffffffffffffffffffffffffffffff16815260200190815260200160002060009054906101000a900460ff1615611c905760019050611c95565b600090505b919050565b60035481565b60606012600060018152602001908152602001600020805480602002602001604051908101604052809291908181526020018280548015611d0057602002820191906000526020600020905b815481526020019060010190808311611cec575b5050505050905090565b3373ffffffffffffffffffffffffffffffffffffffff16600f600083815260200190815260200160002060010160009054906101000a900473ffffffffffffffffffffffffffffffffffffffff1673ffffffffffffffffffffffffffffffffffffffff1614611d7857600080fd5b6002600f600083815260200190815260200160002060040160006101000a81548160ff02191690836004811115611dab57fe5b021790555050565b60008054906101000a900473ffffffffffffffffffffffffffffffffffffffff1673ffffffffffffffffffffffffffffffffffffffff163373ffffffffffffffffffffffffffffffffffffffff1614611e74576040517f08c379a00000000000000000000000000000000000000000000000000000000081526004018080602001828103825260198152602001807f796f7520617265206e6f7420636f6e74726163744f776e65720000000000000081525060200191505060405180910390fd5b806000806101000a81548173ffffffffffffffffffffffffffffffffffffffff021916908373ffffffffffffffffffffffffffffffffffffffff16021790555050565b6060601060003373ffffffffffffffffffffffffffffffffffffffff1673ffffffffffffffffffffffffffffffffffffffff168152602001908152602001600020805480602002602001604051908101604052809291908181526020018280548015611f4257602002820191906000526020600020905b815481526020019060010190808311611f2e575b5050505050905090565b3373ffffffffffffffffffffffffffffffffffffffff16600f600083815260200190815260200160002060010160009054906101000a900473ffffffffffffffffffffffffffffffffffffffff1673ffffffffffffffffffffffffffffffffffffffff1614611fba57600080fd5b6001600f600083815260200190815260200160002060040160006101000a81548160ff02191690836004811115611fed57fe5b021790555050565b611ffe336139d6565b61200757600080fd5b6001600960008373ffffffffffffffffffffffffffffffffffffffff1673ffffffffffffffffffffffffffffffffffffffff16815260200190815260200160002060080160006101000a81548160ff02191690831515021790555050565b3373ffffffffffffffffffffffffffffffffffffffff16600f600083815260200190815260200160002060020160009054906101000a900473ffffffffffffffffffffffffffffffffffffffff1673ffffffffffffffffffffffffffffffffffffffff1614801561210f5750600160048111156120de57fe5b600f600083815260200190815260200160002060040160009054906101000a900460ff16600481111561210d57fe5b145b61211857600080fd5b6003600f600083815260200190815260200160002060040160006101000a81548160ff0219169083600481111561214b57fe5b0217905550600e6000600f600084815260200190815260200160002060030154815260200190815260200160002060080160019054906101000a900473ffffffffffffffffffffffffffffffffffffffff1673ffffffffffffffffffffffffffffffffffffffff166108fc349081150290604051600060405180830381858888f193505050501580156121e2573d6000803e3d6000fd5b506001600f600083815260200190815260200160002060040160016101000a81548160ff021916908315150217905550601360006001815260200190815260200160002081908060018154018082558091505060019003906000526020600020016000909190919091505550565b6060600b6000600181526020019081526020016000208054806020026020016040519081016040528092919081815260200182805480156122e657602002820191906000526020600020905b8160009054906101000a900473ffffffffffffffffffffffffffffffffffffffff1673ffffffffffffffffffffffffffffffffffffffff168152602001906001019080831161229c575b5050505050905090565b60066020528060005260406000206000915090508060000154908060010160009054906101000a900473ffffffffffffffffffffffffffffffffffffffff1690806002018054600181600116156101000203166002900480601f0160208091040260200160405190810160405280929190818152602001828054600181600116156101000203166002900480156123c85780601f1061239d576101008083540402835291602001916123c8565b820191906000526020600020905b8154815290600101906020018083116123ab57829003601f168201915b505050505090806003015490806004018054600181600116156101000203166002900480601f01602080910402602001604051908101604052809291908181526020018280546001816001161561010002031660029004801561246c5780601f106124415761010080835404028352916020019161246c565b820191906000526020600020905b81548152906001019060200180831161244f57829003601f168201915b505050505090806005018054600181600116156101000203166002900480601f01602080910402602001604051908101604052809291908181526020018280546001816001161561010002031660029004801561250a5780601f106124df5761010080835404028352916020019161250a565b820191906000526020600020905b8154815290600101906020018083116124ed57829003601f168201915b5050505050905086565b6000600e600083815260200190815260200160002060080160159054906101000a900460ff169050919050565b60008054906101000a900473ffffffffffffffffffffffffffffffffffffffff1673ffffffffffffffffffffffffffffffffffffffff163373ffffffffffffffffffffffffffffffffffffffff1614612602576040517f08c379a00000000000000000000000000000000000000000000000000000000081526004018080602001828103825260198152602001807f596f7520617265206e6f7420636f6e74726163744f776e65720000000000000081525060200191505060405180910390fd5b600860008273ffffffffffffffffffffffffffffffffffffffff1673ffffffffffffffffffffffffffffffffffffffff16815260200190815260200160002060009054906101000a900460ff166126c1576040517f08c379a00000000000000000000000000000000000000000000000000000000081526004018080602001828103825260188152602001807f4c616e6420496e73706563746f72206e6f7420666f756e64000000000000000081525060200191505060405180910390fd5b6000600860008373ffffffffffffffffffffffffffffffffffffffff1673ffffffffffffffffffffffffffffffffffffffff16815260200190815260200160002060006101000a81548160ff0219169083151502179055506000600760006001815260200190815260200160002080549050905060005b818110156128d5578273ffffffffffffffffffffffffffffffffffffffff166007600060018152602001908152602001600020828154811061277657fe5b9060005260206000200160009054906101000a900473ffffffffffffffffffffffffffffffffffffffff1673ffffffffffffffffffffffffffffffffffffffff1614156128c857600760006001815260200190815260200160002060018303815481106127df57fe5b9060005260206000200160009054906101000a900473ffffffffffffffffffffffffffffffffffffffff166007600060018152602001908152602001600020828154811061282957fe5b9060005260206000200160006101000a81548173ffffffffffffffffffffffffffffffffffffffff021916908373ffffffffffffffffffffffffffffffffffffffff160217905550600760006001815260200190815260200160002080548061288e57fe5b6001900381819060005260206000200160006101000a81549073ffffffffffffffffffffffffffffffffffffffff021916905590556128d5565b8080600101915050612738565b505050565b60045481565b8073ffffffffffffffffffffffffffffffffffffffff166108fc349081150290604051600060405180830381858888f19350505050158015612926573d6000803e3d6000fd5b5050565b6060601160003373ffffffffffffffffffffffffffffffffffffffff1673ffffffffffffffffffffffffffffffffffffffff1681526020019081526020016000208054806020026020016040519081016040528092919081815260200182805480156129b557602002820191906000526020600020905b8154815260200190600101908083116129a1575b5050505050905090565b60606013600060018152602001908152602001600020805480602002602001604051908101604052809291908181526020018280548015612a1f57602002820191906000526020600020905b815481526020019060010190808311612a0b575b5050505050905090565b6000600960008373ffffffffffffffffffffffffffffffffffffffff1673ffffffffffffffffffffffffffffffffffffffff16815260200190815260200160002060080160009054906101000a900460ff169050919050565b600f6020528060005260406000206000915090508060000154908060010160009054906101000a900473ffffffffffffffffffffffffffffffffffffffff16908060020160009054906101000a900473ffffffffffffffffffffffffffffffffffffffff16908060030154908060040160009054906101000a900460ff16908060040160019054906101000a900460ff16905086565b3373ffffffffffffffffffffffffffffffffffffffff16600e600083815260200190815260200160002060080160019054906101000a900473ffffffffffffffffffffffffffffffffffffffff1673ffffffffffffffffffffffffffffffffffffffff1614612b8657600080fd5b6001600e600083815260200190815260200160002060080160006101000a81548160ff02191690831515021790555050565b60003373ffffffffffffffffffffffffffffffffffffffff1660008054906101000a900473ffffffffffffffffffffffffffffffffffffffff1673ffffffffffffffffffffffffffffffffffffffff1614612c165760009050612e79565b3373ffffffffffffffffffffffffffffffffffffffff1660008054906101000a900473ffffffffffffffffffffffffffffffffffffffff1673ffffffffffffffffffffffffffffffffffffffff1614612c6e57600080fd5b6001600860008873ffffffffffffffffffffffffffffffffffffffff1673ffffffffffffffffffffffffffffffffffffffff16815260200190815260200160002060006101000a81548160ff0219169083151502179055506007600060018152602001908152602001600020869080600181540180825580915050600190039060005260206000200160009091909190916101000a81548173ffffffffffffffffffffffffffffffffffffffff021916908373ffffffffffffffffffffffffffffffffffffffff1602179055506040518060c0016040528060015481526020018773ffffffffffffffffffffffffffffffffffffffff16815260200186815260200185815260200184815260200183815250600660008873ffffffffffffffffffffffffffffffffffffffff1673ffffffffffffffffffffffffffffffffffffffff1681526020019081526020016000206000820151816000015560208201518160010160006101000a81548173ffffffffffffffffffffffffffffffffffffffff021916908373ffffffffffffffffffffffffffffffffffffffff1602179055506040820151816002019080519060200190612e2c929190614632565b50606082015181600301556080820151816004019080519060200190612e53929190614632565b5060a0820151816005019080519060200190612e70929190614632565b50905050600190505b95945050505050565b612e8b33612a29565b612e9457600080fd5b60036000815480929190600101919050555060405180610160016040528060035481526020018881526020018781526020018681526020018581526020018481526020018381526020018281526020016000151581526020013373ffffffffffffffffffffffffffffffffffffffff16815260200160001515815250600e6000600354815260200190815260200160002060008201518160000155602082015181600101556040820151816002019080519060200190612f55929190614632565b50606082015181600301556080820151816004019080519060200190612f7c929190614632565b5060a0820151816005015560c0820151816006019080519060200190612fa3929190614632565b5060e0820151816007019080519060200190612fc0929190614632565b506101008201518160080160006101000a81548160ff0219169083151502179055506101208201518160080160016101000a81548173ffffffffffffffffffffffffffffffffffffffff021916908373ffffffffffffffffffffffffffffffffffffffff1602179055506101408201518160080160156101000a81548160ff021916908315150217905550905050600d60003373ffffffffffffffffffffffffffffffffffffffff1673ffffffffffffffffffffffffffffffffffffffff16815260200190815260200160002060035490806001815401808255809150506001900390600052602060002001600090919091909150556012600060018152602001908152602001600020600354908060018154018082558091505060019003906000526020600020016000909190919091505550505050505050565b6000600e6000838152602001908152602001600020600301549050919050565b6060600d60008373ffffffffffffffffffffffffffffffffffffffff1673ffffffffffffffffffffffffffffffffffffffff1681526020019081526020016000208054806020026020016040519081016040528092919081815260200182805480156131a757602002820191906000526020600020905b815481526020019060010190808311613193575b50505050509050919050565b6060600760006001815260200190815260200160002080548060200260200160405190810160405280929190818152602001828054801561324957602002820191906000526020600020905b8160009054906101000a900473ffffffffffffffffffffffffffffffffffffffff1673ffffffffffffffffffffffffffffffffffffffff16815260200190600101908083116131ff575b5050505050905090565b61325c33612a29565b801561326d575061326c81612514565b5b61327657600080fd5b6005600081548092919060010191905055506040518060c001604052806005548152602001600e600084815260200190815260200160002060080160019054906101000a900473ffffffffffffffffffffffffffffffffffffffff1673ffffffffffffffffffffffffffffffffffffffff1681526020013373ffffffffffffffffffffffffffffffffffffffff1681526020018281526020016000600481111561331c57fe5b815260200160001515815250600f600060055481526020019081526020016000206000820151816000015560208201518160010160006101000a81548173ffffffffffffffffffffffffffffffffffffffff021916908373ffffffffffffffffffffffffffffffffffffffff16021790555060408201518160020160006101000a81548173ffffffffffffffffffffffffffffffffffffffff021916908373ffffffffffffffffffffffffffffffffffffffff1602179055506060820151816003015560808201518160040160006101000a81548160ff0219169083600481111561340357fe5b021790555060a08201518160040160016101000a81548160ff02191690831515021790555090505060106000600e600084815260200190815260200160002060080160019054906101000a900473ffffffffffffffffffffffffffffffffffffffff1673ffffffffffffffffffffffffffffffffffffffff1673ffffffffffffffffffffffffffffffffffffffff1681526020019081526020016000206005549080600181540180825580915050600190039060005260206000200160009091909190915055601160003373ffffffffffffffffffffffffffffffffffffffff1673ffffffffffffffffffffffffffffffffffffffff168152602001908152602001600020600554908060018154018082558091505060019003906000526020600020016000909190919091505550565b60096020528060005260406000206000915090508060000160009054906101000a900473ffffffffffffffffffffffffffffffffffffffff1690806001018054600181600116156101000203166002900480601f0160208091040260200160405190810160405280929190818152602001828054600181600116156101000203166002900480156136065780601f106135db57610100808354040283529160200191613606565b820191906000526020600020905b8154815290600101906020018083116135e957829003601f168201915b505050505090806002015490806003018054600181600116156101000203166002900480601f0160208091040260200160405190810160405280929190818152602001828054600181600116156101000203166002900480156136aa5780601f1061367f576101008083540402835291602001916136aa565b820191906000526020600020905b81548152906001019060200180831161368d57829003601f168201915b505050505090806004018054600181600116156101000203166002900480601f0160208091040260200160405190810160405280929190818152602001828054600181600116156101000203166002900480156137485780601f1061371d57610100808354040283529160200191613748565b820191906000526020600020905b81548152906001019060200180831161372b57829003601f168201915b505050505090806005018054600181600116156101000203166002900480601f0160208091040260200160405190810160405280929190818152602001828054600181600116156101000203166002900480156137e65780601f106137bb576101008083540402835291602001916137e6565b820191906000526020600020905b8154815290600101906020018083116137c957829003601f168201915b505050505090806006018054600181600116156101000203166002900480601f0160208091040260200160405190810160405280929190818152602001828054600181600116156101000203166002900480156138845780601f1061385957610100808354040283529160200191613884565b820191906000526020600020905b81548152906001019060200180831161386757829003601f168201915b505050505090806007018054600181600116156101000203166002900480601f0160208091040260200160405190810160405280929190818152602001828054600181600116156101000203166002900480156139225780601f106138f757610100808354040283529160200191613922565b820191906000526020600020905b81548152906001019060200180831161390557829003601f168201915b5050505050908060080160009054906101000a900460ff16905089565b6000600f600083815260200190815260200160002060040160019054906101000a900460ff169050919050565b60008060009054906101000a900473ffffffffffffffffffffffffffffffffffffffff1673ffffffffffffffffffffffffffffffffffffffff168273ffffffffffffffffffffffffffffffffffffffff1614156139cc57600190506139d1565b600090505b919050565b6000600860008373ffffffffffffffffffffffffffffffffffffffff1673ffffffffffffffffffffffffffffffffffffffff16815260200190815260200160002060009054906101000a900460ff1615613a335760019050613a38565b600090505b919050565b600e602052806000526040600020600091509050806000015490806001015490806002018054600181600116156101000203166002900480601f016020809104026020016040519081016040528092919081815260200182805460018160011615610100020316600290048015613af55780601f10613aca57610100808354040283529160200191613af5565b820191906000526020600020905b815481529060010190602001808311613ad857829003601f168201915b505050505090806003015490806004018054600181600116156101000203166002900480601f016020809104026020016040519081016040528092919081815260200182805460018160011615610100020316600290048015613b995780601f10613b6e57610100808354040283529160200191613b99565b820191906000526020600020905b815481529060010190602001808311613b7c57829003601f168201915b505050505090806005015490806006018054600181600116156101000203166002900480601f016020809104026020016040519081016040528092919081815260200182805460018160011615610100020316600290048015613c3d5780601f10613c1257610100808354040283529160200191613c3d565b820191906000526020600020905b815481529060010190602001808311613c2057829003601f168201915b505050505090806007018054600181600116156101000203166002900480601f016020809104026020016040519081016040528092919081815260200182805460018160011615610100020316600290048015613cdb5780601f10613cb057610100808354040283529160200191613cdb565b820191906000526020600020905b815481529060010190602001808311613cbe57829003601f168201915b5050505050908060080160009054906101000a900460ff16908060080160019054906101000a900473ffffffffffffffffffffffffffffffffffffffff16908060080160159054906101000a900460ff1690508b565b600c60003373ffffffffffffffffffffffffffffffffffffffff1673ffffffffffffffffffffffffffffffffffffffff16815260200190815260200160002060009054906101000a900460ff1615613d8857600080fd5b6001600c60003373ffffffffffffffffffffffffffffffffffffffff1673ffffffffffffffffffffffffffffffffffffffff16815260200190815260200160002060006101000a81548160ff021916908315150217905550600260008154809291906001019190505550600b600060018152602001908152602001600020339080600181540180825580915050600190039060005260206000200160009091909190916101000a81548173ffffffffffffffffffffffffffffffffffffffff021916908373ffffffffffffffffffffffffffffffffffffffff16021790555033600a6000600254815260200190815260200160002060006101000a81548173ffffffffffffffffffffffffffffffffffffffff021916908373ffffffffffffffffffffffffffffffffffffffff1602179055506040518061012001604052803373ffffffffffffffffffffffffffffffffffffffff16815260200188815260200187815260200186815260200185815260200184815260200183815260200182815260200160001515815250600960003373ffffffffffffffffffffffffffffffffffffffff1673ffffffffffffffffffffffffffffffffffffffff16815260200190815260200160002060008201518160000160006101000a81548173ffffffffffffffffffffffffffffffffffffffff021916908373ffffffffffffffffffffffffffffffffffffffff1602179055506020820151816001019080519060200190613fb6929190614632565b50604082015181600201556060820151816003019080519060200190613fdd929190614632565b506080820151816004019080519060200190613ffa929190614632565b5060a0820151816005019080519060200190614017929190614632565b5060c0820151816006019080519060200190614034929190614632565b5060e0820151816007019080519060200190614051929190614632565b506101008201518160080160006101000a81548160ff02191690831515021790555090505050505050505050565b614088336139d6565b61409157600080fd5b6001600e600083815260200190815260200160002060080160156101000a81548160ff02191690831515021790555050565b60006140ce336139d6565b6140d757600080fd5b60001515600f600085815260200190815260200160002060040160019054906101000a900460ff1615151415614110576000905061462c565b6004600081548092919060010191905055506004600f600085815260200190815260200160002060040160006101000a81548160ff0219169083600481111561415557fe5b0217905550600d6000600f600086815260200190815260200160002060020160009054906101000a900473ffffffffffffffffffffffffffffffffffffffff1673ffffffffffffffffffffffffffffffffffffffff1673ffffffffffffffffffffffffffffffffffffffff168152602001908152602001600020600f60008581526020019081526020016000206003015490806001815401808255809150506001900390600052602060002001600090919091909150556000600d6000600f600087815260200190815260200160002060010160009054906101000a900473ffffffffffffffffffffffffffffffffffffffff1673ffffffffffffffffffffffffffffffffffffffff1673ffffffffffffffffffffffffffffffffffffffff16815260200190815260200160002080549050905060005b818110156144fe57600f600086815260200190815260200160002060030154600d6000600f600089815260200190815260200160002060010160009054906101000a900473ffffffffffffffffffffffffffffffffffffffff1673ffffffffffffffffffffffffffffffffffffffff1673ffffffffffffffffffffffffffffffffffffffff168152602001908152602001600020828154811061432b57fe5b906000526020600020015414156144f157600d6000600f600088815260200190815260200160002060010160009054906101000a900473ffffffffffffffffffffffffffffffffffffffff1673ffffffffffffffffffffffffffffffffffffffff1673ffffffffffffffffffffffffffffffffffffffff16815260200190815260200160002060018303815481106143bf57fe5b9060005260206000200154600d6000600f600089815260200190815260200160002060010160009054906101000a900473ffffffffffffffffffffffffffffffffffffffff1673ffffffffffffffffffffffffffffffffffffffff1673ffffffffffffffffffffffffffffffffffffffff168152602001908152602001600020828154811061444a57fe5b9060005260206000200181905550600d6000600f600088815260200190815260200160002060010160009054906101000a900473ffffffffffffffffffffffffffffffffffffffff1673ffffffffffffffffffffffffffffffffffffffff1673ffffffffffffffffffffffffffffffffffffffff1681526020019081526020016000208054806144d657fe5b600190038181906000526020600020016000905590556144fe565b808060010191505061428c565b5082600e6000600f6000888152602001908152602001600020600301548152602001908152602001600020600701908051906020019061453f929190614632565b506000600e6000600f600088815260200190815260200160002060030154815260200190815260200160002060080160006101000a81548160ff021916908315150217905550600f600085815260200190815260200160002060020160009054906101000a900473ffffffffffffffffffffffffffffffffffffffff16600e6000600f600088815260200190815260200160002060030154815260200190815260200160002060080160016101000a81548173ffffffffffffffffffffffffffffffffffffffff021916908373ffffffffffffffffffffffffffffffffffffffff16021790555060019150505b92915050565b828054600181600116156101000203166002900490600052602060002090601f016020900481019282601f1061467357805160ff19168380011785556146a1565b828001600101855582156146a1579182015b828111156146a0578251825591602001919060010190614685565b5b5090506146ae91906146b2565b5090565b5b808211156146cb5760008160009055506001016146b3565b509056fea26469706673582212209fcd5852c70faa8951cc5ac17d25d8af5851fb15622e7d5995fba1915d506e1764736f6c634300060c0033",
  "immutableReferences": {},
  "source": "// SPDX-License-Identifier: MIT\n\npragma solidity >=0.4.16 <0.9.0 ;\n\ncontract Land {\n    address contractOwner;\n\n     constructor() public {\n        contractOwner = msg.sender;\n    }\n\n    struct Landreg {\n        uint id;\n        uint area;\n        string landAddress;\n        uint landPrice;\n        string allLatitudeLongitude;\n        //string allLongitude;\n        uint propertyPID;\n        string physicalSurveyNumber;\n        string document;\n        bool isforSell;\n        address payable ownerAddress;\n        bool isLandVerified;\n    }\n\n    struct User{\n        address id;\n        string name;\n        uint age;\n        string city;\n        string aadharNumber;\n        string panNumber;\n        string document;\n        string email;\n        bool isUserVerified;\n    }\n\n    struct LandInspector {\n        uint id;\n        address _addr;\n        string name;\n        uint age;\n        string designation;\n        string city;\n    }\n\n    struct LandRequest{\n        uint reqId;\n        address payable sellerId;\n        address payable buyerId;\n        uint landId;\n        reqStatus requestStatus;\n        bool isPaymentDone;\n    }\n    enum reqStatus {requested,accepted,rejected,paymentdone,commpleted}\n\n\n    uint inspectorsCount;\n    uint public userCount;\n    uint public landsCount;\n    uint public documentId;\n    uint requestCount;\n\n\n    mapping(address => LandInspector) public InspectorMapping;\n    mapping(uint => address[]) allLandInspectorList;\n    mapping(address => bool)  RegisteredInspectorMapping;\n    mapping(address => User) public UserMapping;\n    mapping(uint => address)  AllUsers;\n    mapping(uint => address[])  allUsersList;\n    mapping(address => bool)  RegisteredUserMapping;\n    mapping(address => uint[])  MyLands;\n    mapping(uint => Landreg) public lands;\n    mapping(uint => LandRequest) public LandRequestMapping;\n    mapping(address => uint[])  MyReceivedLandRequest;\n    mapping(address => uint[])  MySentLandRequest;\n    mapping(uint => uint[])  allLandList;\n    mapping(uint => uint[])  paymentDoneList;\n\n\n    function isContractOwner(address _addr) public view returns(bool){\n        if(_addr==contractOwner)\n            return true;\n        else\n            return false;\n    }\n\n    function changeContractOwner(address _addr)public {\n        require(msg.sender==contractOwner,\"you are not contractOwner\");\n\n        contractOwner=_addr;\n    }\n\n    //-----------------------------------------------LandInspector-----------------------------------------------\n\n    function addLandInspector(address _addr,string memory _name, uint _age, string memory _designation,string memory _city) public returns(bool){\n        if(contractOwner!=msg.sender)\n            return false;\n        require(contractOwner==msg.sender);\n        RegisteredInspectorMapping[_addr]=true;\n        allLandInspectorList[1].push(_addr);\n        InspectorMapping[_addr] = LandInspector(inspectorsCount,_addr,_name, _age, _designation,_city);\n        return true;\n    }\n\n    function ReturnAllLandIncpectorList() public view returns(address[] memory)\n    {\n        return allLandInspectorList[1];\n    }\n\n    function removeLandInspector(address _addr) public{\n        require(msg.sender==contractOwner,\"You are not contractOwner\");\n        require(RegisteredInspectorMapping[_addr],\"Land Inspector not found\");\n        RegisteredInspectorMapping[_addr]=false;\n\n\n        uint len=allLandInspectorList[1].length;\n        for(uint i=0;i<len;i++)\n        {\n            if(allLandInspectorList[1][i]==_addr)\n            {\n                allLandInspectorList[1][i]=allLandInspectorList[1][len-1];\n                allLandInspectorList[1].pop();\n                break;\n            }\n        }\n    }\n\n    function isLandInspector(address _id) public view returns (bool) {\n        if(RegisteredInspectorMapping[_id]){\n            return true;\n        }else{\n            return false;\n        }\n    }\n\n\n\n    //-----------------------------------------------User-----------------------------------------------\n\n    function isUserRegistered(address _addr) public view returns(bool)\n    {\n        if(RegisteredUserMapping[_addr]){\n            return true;\n        }else{\n            return false;\n        }\n    }\n\n    function registerUser(string memory _name, uint _age, string memory _city,string memory _aadharNumber, string memory _panNumber, string memory _document, string memory _email\n    ) public {\n\n        require(!RegisteredUserMapping[msg.sender]);\n\n        RegisteredUserMapping[msg.sender] = true;\n        userCount++;\n        allUsersList[1].push(msg.sender);\n        AllUsers[userCount]=msg.sender;\n        UserMapping[msg.sender] = User(msg.sender, _name, _age, _city,_aadharNumber,_panNumber, _document,_email,false);\n        //emit Registration(msg.sender);\n    }\n\n    function verifyUser(address _userId) public{\n        require(isLandInspector(msg.sender));\n        UserMapping[_userId].isUserVerified=true;\n    }\n    function isUserVerified(address id) public view returns(bool){\n        return UserMapping[id].isUserVerified;\n    }\n    function ReturnAllUserList() public view returns(address[] memory)\n    {\n        return allUsersList[1];\n    }\n\n\n    //-----------------------------------------------Land-----------------------------------------------\n    function addLand(uint _area, string memory _address, uint landPrice,string memory _allLatiLongi, uint _propertyPID,string memory _surveyNum, string memory _document) public {\n        require(isUserVerified(msg.sender));\n        landsCount++;\n        lands[landsCount] = Landreg(landsCount, _area, _address, landPrice,_allLatiLongi,_propertyPID, _surveyNum , _document,false,payable(msg.sender),false);\n        MyLands[msg.sender].push(landsCount);\n        allLandList[1].push(landsCount);\n        // emit AddingLand(landsCount);\n    }\n\n    function ReturnAllLandList() public view returns(uint[] memory)\n    {\n        return allLandList[1];\n    }\n\n    function verifyLand(uint _id) public{\n        require(isLandInspector(msg.sender));\n        lands[_id].isLandVerified=true;\n    }\n    function isLandVerified(uint id) public view returns(bool){\n        return lands[id].isLandVerified;\n    }\n\n    function myAllLands(address id) public view returns( uint[] memory){\n        return MyLands[id];\n    }\n\n\n    function makeItforSell(uint id) public{\n        require(lands[id].ownerAddress==msg.sender);\n        lands[id].isforSell=true;\n    }\n\n    function requestforBuy(uint _landId) public\n    {\n        require(isUserVerified(msg.sender) && isLandVerified(_landId));\n        requestCount++;\n        LandRequestMapping[requestCount]=LandRequest(requestCount,lands[_landId].ownerAddress,payable(msg.sender),_landId,reqStatus.requested,false);\n        MyReceivedLandRequest[lands[_landId].ownerAddress].push(requestCount);\n        MySentLandRequest[msg.sender].push(requestCount);\n    }\n\n    function myReceivedLandRequests() public view returns(uint[] memory)\n    {\n        return MyReceivedLandRequest[msg.sender];\n    }\n    function mySentLandRequests() public view returns(uint[] memory)\n    {\n        return MySentLandRequest[msg.sender];\n    }\n    function acceptRequest(uint _requestId) public\n    {\n        require(LandRequestMapping[_requestId].sellerId==msg.sender);\n        LandRequestMapping[_requestId].requestStatus=reqStatus.accepted;\n    }\n    function rejectRequest(uint _requestId) public\n    {\n        require(LandRequestMapping[_requestId].sellerId==msg.sender);\n        LandRequestMapping[_requestId].requestStatus=reqStatus.rejected;\n    }\n\n    function requesteStatus(uint id) public view returns(bool)\n    {\n        return LandRequestMapping[id].isPaymentDone;\n    }\n\n    function landPriceFun(uint id) public view returns(uint)\n    {\n        return lands[id].landPrice;\n    }\n    function makePayment(uint _requestId) public payable\n    {\n        require(LandRequestMapping[_requestId].buyerId==msg.sender && LandRequestMapping[_requestId].requestStatus==reqStatus.accepted);\n\n        LandRequestMapping[_requestId].requestStatus=reqStatus.paymentdone;\n        //LandRequestMapping[_requestId].sellerId.transfer(lands[LandRequestMapping[_requestId].landId].landPrice);\n        //lands[LandRequestMapping[_requestId].landId].ownerAddress.transfer(lands[LandRequestMapping[_requestId].landId].landPrice);\n        lands[LandRequestMapping[_requestId].landId].ownerAddress.transfer(msg.value);\n        LandRequestMapping[_requestId].isPaymentDone=true;\n        paymentDoneList[1].push(_requestId);\n    }\n\n    function returnPaymentDoneList() public view returns(uint[] memory)\n    {\n        return paymentDoneList[1];\n    }\n\n    function transferOwnership(uint _requestId,string memory documentUrl) public returns(bool)\n    {\n        require(isLandInspector(msg.sender));\n        if(LandRequestMapping[_requestId].isPaymentDone==false)\n            return false;\n        documentId++;\n        LandRequestMapping[_requestId].requestStatus=reqStatus.commpleted;\n        MyLands[LandRequestMapping[_requestId].buyerId].push(LandRequestMapping[_requestId].landId);\n\n        uint len=MyLands[LandRequestMapping[_requestId].sellerId].length;\n        for(uint i=0;i<len;i++)\n        {\n            if(MyLands[LandRequestMapping[_requestId].sellerId][i]==LandRequestMapping[_requestId].landId)\n            {\n                MyLands[LandRequestMapping[_requestId].sellerId][i]=MyLands[LandRequestMapping[_requestId].sellerId][len-1];\n                //MyLands[LandRequestMapping[_requestId].sellerId].length--;\n                MyLands[LandRequestMapping[_requestId].sellerId].pop();\n                break;\n            }\n        }\n        lands[LandRequestMapping[_requestId].landId].document=documentUrl;\n        lands[LandRequestMapping[_requestId].landId].isforSell=false;\n        lands[LandRequestMapping[_requestId].landId].ownerAddress=LandRequestMapping[_requestId].buyerId;\n        return true;\n    }\n    function makePaymentTestFun(address payable _reveiver) public payable\n    {\n        _reveiver.transfer(msg.value);\n    }\n}",
  "sourcePath": "C:\\Users\\safac\\Videos\\Blockchain-Based-Property-Registration-main\\contracts\\landContrat.sol",
  "compiler": {
    "name": "solc",
    "version": "0.6.12+commit.27d51765.Emscripten.clang"
  },
  "schemaVersion": "3.4.16",
  "updatedAt": "2024-03-25T10:28:44.562Z",
  "networkType": "ethereum",
  "devdoc": {
    "kind": "dev",
    "methods": {},
    "version": 1
  },
  "userdoc": {
    "kind": "user",
    "methods": {},
    "version": 1
  }
}