{
  "contractName": "Land",
  "abi": [
    {
      "inputs": [],
      "stateMutability": "nonpayable",
      "type": "constructor"
    },
    {
      "inputs": [
        {
          "internalType": "address",
          "name": "",
          "type": "address"
        }
      ],
      "name": "InspectorMapping",
      "outputs": [
        {
          "internalType": "uint256",
          "name": "id",
          "type": "uint256"
        },
        {
          "internalType": "address",
          "name": "_addr",
          "type": "address"
        },
        {
          "internalType": "string",
          "name": "name",
          "type": "string"
        },
        {
          "internalType": "uint256",
          "name": "age",
          "type": "uint256"
        },
        {
          "internalType": "string",
          "name": "designation",
          "type": "string"
        },
        {
          "internalType": "string",
          "name": "city",
          "type": "string"
        }
      ],
      "stateMutability": "view",
      "type": "function",
      "constant": true
    },
    {
      "inputs": [
        {
          "internalType": "address",
          "name": "_addr",
          "type": "address"
        }
      ],
      "name": "isContractOwner",
      "outputs": [
        {
          "internalType": "bool",
          "name": "",
          "type": "bool"
        }
      ],
      "stateMutability": "view",
      "type": "function",
      "constant": true
    },
    {
      "inputs": [
        {
          "internalType": "address",
          "name": "_addr",
          "type": "address"
        }
      ],
      "name": "changeContractOwner",
      "outputs": [],
      "stateMutability": "nonpayable",
      "type": "function"
    },
    {
      "inputs": [
        {
          "internalType": "address",
          "name": "_addr",
          "type": "address"
        },
        {
          "internalType": "string",
          "name": "_name",
          "type": "string"
        },
        {
          "internalType": "uint256",
          "name": "_age",
          "type": "uint256"
        },
        {
          "internalType": "string",
          "name": "_designation",
          "type": "string"
        },
        {
          "internalType": "string",
          "name": "_city",
          "type": "string"
        }
      ],
      "name": "addAdmin",
      "outputs": [
        {
          "internalType": "bool",
          "name": "",
          "type": "bool"
        }
      ],
      "stateMutability": "nonpayable",
      "type": "function"
    },
    {
      "inputs": [],
      "name": "ReturnAllLandIncpectorList",
      "outputs": [
        {
          "internalType": "address[]",
          "name": "",
          "type": "address[]"
        }
      ],
      "stateMutability": "view",
      "type": "function",
      "constant": true
    },
    {
      "inputs": [
        {
          "internalType": "address",
          "name": "_addr",
          "type": "address"
        }
      ],
      "name": "removeAdmin",
      "outputs": [],
      "stateMutability": "nonpayable",
      "type": "function"
    },
    {
      "inputs": [
        {
          "internalType": "address",
          "name": "_id",
          "type": "address"
        }
      ],
      "name": "isAdmin",
      "outputs": [
        {
          "internalType": "bool",
          "name": "",
          "type": "bool"
        }
      ],
      "stateMutability": "view",
      "type": "function",
      "constant": true
    }
  ],
  "bytecode": "0x608060405234801561001057600080fd5b50336000806101000a81548173ffffffffffffffffffffffffffffffffffffffff021916908373ffffffffffffffffffffffffffffffffffffffff1602179055506111d5806100606000396000f3fe608060405234801561001057600080fd5b506004361061007d5760003560e01c806364efa0021161005b57806364efa002146101645780637fd1be3914610324578063d251839b1461054d578063de117688146105ac5761007d565b80631785f53c1461008257806324d7806c146100c65780633ead67b514610120575b600080fd5b6100c46004803603602081101561009857600080fd5b81019080803573ffffffffffffffffffffffffffffffffffffffff169060200190929190505050610606565b005b610108600480360360208110156100dc57600080fd5b81019080803573ffffffffffffffffffffffffffffffffffffffff16906020019092919050505061099f565b60405180821515815260200191505060405180910390f35b6101626004803603602081101561013657600080fd5b81019080803573ffffffffffffffffffffffffffffffffffffffff169060200190929190505050610a06565b005b6101a66004803603602081101561017a57600080fd5b81019080803573ffffffffffffffffffffffffffffffffffffffff169060200190929190505050610b0a565b604051808781526020018673ffffffffffffffffffffffffffffffffffffffff168152602001806020018581526020018060200180602001848103845288818151815260200191508051906020019080838360005b838110156102165780820151818401526020810190506101fb565b50505050905090810190601f1680156102435780820380516001836020036101000a031916815260200191505b50848103835286818151815260200191508051906020019080838360005b8381101561027c578082015181840152602081019050610261565b50505050905090810190601f1680156102a95780820380516001836020036101000a031916815260200191505b50848103825285818151815260200191508051906020019080838360005b838110156102e25780820151818401526020810190506102c7565b50505050905090810190601f16801561030f5780820380516001836020036101000a031916815260200191505b50995050505050505050505060405180910390f35b610535600480360360a081101561033a57600080fd5b81019080803573ffffffffffffffffffffffffffffffffffffffff1690602001909291908035906020019064010000000081111561037757600080fd5b82018360208201111561038957600080fd5b803590602001918460018302840111640100000000831117156103ab57600080fd5b91908080601f016020809104026020016040519081016040528093929190818152602001838380828437600081840152601f19601f820116905080830192505050505050509192919290803590602001909291908035906020019064010000000081111561041857600080fd5b82018360208201111561042a57600080fd5b8035906020019184600183028401116401000000008311171561044c57600080fd5b91908080601f016020809104026020016040519081016040528093929190818152602001838380828437600081840152601f19601f820116905080830192505050505050509192919290803590602001906401000000008111156104af57600080fd5b8201836020820111156104c157600080fd5b803590602001918460018302840111640100000000831117156104e357600080fd5b91908080601f016020809104026020016040519081016040528093929190818152602001838380828437600081840152601f19601f820116905080830192505050505050509192919290505050610d2e565b60405180821515815260200191505060405180910390f35b610555610ff8565b6040518080602001828103825283818151815260200191508051906020019060200280838360005b8381101561059857808201518184015260208101905061057d565b505050509050019250505060405180910390f35b6105ee600480360360208110156105c257600080fd5b81019080803573ffffffffffffffffffffffffffffffffffffffff169060200190929190505050611098565b60405180821515815260200191505060405180910390f35b60008054906101000a900473ffffffffffffffffffffffffffffffffffffffff1673ffffffffffffffffffffffffffffffffffffffff163373ffffffffffffffffffffffffffffffffffffffff16146106c7576040517f08c379a00000000000000000000000000000000000000000000000000000000081526004018080602001828103825260198152602001807f596f7520617265206e6f7420636f6e74726163744f776e65720000000000000081525060200191505060405180910390fd5b600460008273ffffffffffffffffffffffffffffffffffffffff1673ffffffffffffffffffffffffffffffffffffffff16815260200190815260200160002060009054906101000a900460ff16610786576040517f08c379a00000000000000000000000000000000000000000000000000000000081526004018080602001828103825260188152602001807f4c616e6420496e73706563746f72206e6f7420666f756e64000000000000000081525060200191505060405180910390fd5b6000600460008373ffffffffffffffffffffffffffffffffffffffff1673ffffffffffffffffffffffffffffffffffffffff16815260200190815260200160002060006101000a81548160ff0219169083151502179055506000600360006001815260200190815260200160002080549050905060005b8181101561099a578273ffffffffffffffffffffffffffffffffffffffff166003600060018152602001908152602001600020828154811061083b57fe5b9060005260206000200160009054906101000a900473ffffffffffffffffffffffffffffffffffffffff1673ffffffffffffffffffffffffffffffffffffffff16141561098d57600360006001815260200190815260200160002060018303815481106108a457fe5b9060005260206000200160009054906101000a900473ffffffffffffffffffffffffffffffffffffffff16600360006001815260200190815260200160002082815481106108ee57fe5b9060005260206000200160006101000a81548173ffffffffffffffffffffffffffffffffffffffff021916908373ffffffffffffffffffffffffffffffffffffffff160217905550600360006001815260200190815260200160002080548061095357fe5b6001900381819060005260206000200160006101000a81549073ffffffffffffffffffffffffffffffffffffffff0219169055905561099a565b80806001019150506107fd565b505050565b6000600460008373ffffffffffffffffffffffffffffffffffffffff1673ffffffffffffffffffffffffffffffffffffffff16815260200190815260200160002060009054906101000a900460ff16156109fc5760019050610a01565b600090505b919050565b60008054906101000a900473ffffffffffffffffffffffffffffffffffffffff1673ffffffffffffffffffffffffffffffffffffffff163373ffffffffffffffffffffffffffffffffffffffff1614610ac7576040517f08c379a00000000000000000000000000000000000000000000000000000000081526004018080602001828103825260198152602001807f796f7520617265206e6f7420636f6e74726163744f776e65720000000000000081525060200191505060405180910390fd5b806000806101000a81548173ffffffffffffffffffffffffffffffffffffffff021916908373ffffffffffffffffffffffffffffffffffffffff16021790555050565b60026020528060005260406000206000915090508060000154908060010160009054906101000a900473ffffffffffffffffffffffffffffffffffffffff1690806002018054600181600116156101000203166002900480601f016020809104026020016040519081016040528092919081815260200182805460018160011615610100020316600290048015610be25780601f10610bb757610100808354040283529160200191610be2565b820191906000526020600020905b815481529060010190602001808311610bc557829003601f168201915b505050505090806003015490806004018054600181600116156101000203166002900480601f016020809104026020016040519081016040528092919081815260200182805460018160011615610100020316600290048015610c865780601f10610c5b57610100808354040283529160200191610c86565b820191906000526020600020905b815481529060010190602001808311610c6957829003601f168201915b505050505090806005018054600181600116156101000203166002900480601f016020809104026020016040519081016040528092919081815260200182805460018160011615610100020316600290048015610d245780601f10610cf957610100808354040283529160200191610d24565b820191906000526020600020905b815481529060010190602001808311610d0757829003601f168201915b5050505050905086565b60003373ffffffffffffffffffffffffffffffffffffffff1660008054906101000a900473ffffffffffffffffffffffffffffffffffffffff1673ffffffffffffffffffffffffffffffffffffffff1614610d8c5760009050610fef565b3373ffffffffffffffffffffffffffffffffffffffff1660008054906101000a900473ffffffffffffffffffffffffffffffffffffffff1673ffffffffffffffffffffffffffffffffffffffff1614610de457600080fd5b6001600460008873ffffffffffffffffffffffffffffffffffffffff1673ffffffffffffffffffffffffffffffffffffffff16815260200190815260200160002060006101000a81548160ff0219169083151502179055506003600060018152602001908152602001600020869080600181540180825580915050600190039060005260206000200160009091909190916101000a81548173ffffffffffffffffffffffffffffffffffffffff021916908373ffffffffffffffffffffffffffffffffffffffff1602179055506040518060c0016040528060015481526020018773ffffffffffffffffffffffffffffffffffffffff16815260200186815260200185815260200184815260200183815250600260008873ffffffffffffffffffffffffffffffffffffffff1673ffffffffffffffffffffffffffffffffffffffff1681526020019081526020016000206000820151816000015560208201518160010160006101000a81548173ffffffffffffffffffffffffffffffffffffffff021916908373ffffffffffffffffffffffffffffffffffffffff1602179055506040820151816002019080519060200190610fa2929190611102565b50606082015181600301556080820151816004019080519060200190610fc9929190611102565b5060a0820151816005019080519060200190610fe6929190611102565b50905050600190505b95945050505050565b6060600360006001815260200190815260200160002080548060200260200160405190810160405280929190818152602001828054801561108e57602002820191906000526020600020905b8160009054906101000a900473ffffffffffffffffffffffffffffffffffffffff1673ffffffffffffffffffffffffffffffffffffffff1681526020019060010190808311611044575b5050505050905090565b60008060009054906101000a900473ffffffffffffffffffffffffffffffffffffffff1673ffffffffffffffffffffffffffffffffffffffff168273ffffffffffffffffffffffffffffffffffffffff1614156110f857600190506110fd565b600090505b919050565b828054600181600116156101000203166002900490600052602060002090601f016020900481019282601f1061114357805160ff1916838001178555611171565b82800160010185558215611171579182015b82811115611170578251825591602001919060010190611155565b5b50905061117e9190611182565b5090565b5b8082111561119b576000816000905550600101611183565b509056fea26469706673582212208c3609bde28bbe63ab86051fc909fcf74ba6c9e27cd9e8dd68959b9a6cf2da9464736f6c634300060c0033",
  "immutableReferences": {},
  "source": "pragma solidity >=0.4.22 <0.9.0;\n\ncontract Land {\n    address contractOwner;\n\n    constructor() public{\n        contractOwner = msg.sender;\n    }\n\n    struct Admin {\n        uint id;\n        address _addr;\n        string name;\n        uint age;\n        string designation;\n        string city;\n    }\n     uint inspectorsCount;\n\n\n    mapping(address => Admin) public InspectorMapping;\n    mapping(uint => address[]) allAdminList;\n    mapping(address => bool)  RegisteredInspectorMapping;\n  \n\n\n    function isContractOwner(address _addr) public view returns(bool){\n        if(_addr==contractOwner)\n            return true;\n        else\n            return false;\n    }\n\n    function changeContractOwner(address _addr)public {\n        require(msg.sender==contractOwner,\"you are not contractOwner\");\n\n        contractOwner=_addr;\n    }\n\n    //-----------------------------------------------Admin-----------------------------------------------\n\n    function addAdmin(address _addr,string memory _name, uint _age, string memory _designation,string memory _city) public returns(bool){\n        if(contractOwner!=msg.sender)\n            return false;\n        require(contractOwner==msg.sender);\n        RegisteredInspectorMapping[_addr]=true;\n        allAdminList[1].push(_addr);\n        InspectorMapping[_addr] = Admin(inspectorsCount,_addr,_name, _age, _designation,_city);\n        return true;\n    }\n\n    function ReturnAllLandIncpectorList() public view returns(address[] memory)\n    {\n        return allAdminList[1];\n    }\n\n    function removeAdmin(address _addr) public{\n        require(msg.sender==contractOwner,\"You are not contractOwner\");\n        require(RegisteredInspectorMapping[_addr],\"Land Inspector not found\");\n        RegisteredInspectorMapping[_addr]=false;\n\n\n        uint len=allAdminList[1].length;\n        for(uint i=0;i<len;i++)\n        {\n            if(allAdminList[1][i]==_addr)\n            {\n                allAdminList[1][i]=allAdminList[1][len-1];\n                allAdminList[1].pop();\n                break;\n            }\n        }\n    }\n\n    function isAdmin(address _id) public view returns (bool) {\n        if(RegisteredInspectorMapping[_id]){\n            return true;\n        }else{\n            return false;\n        }\n    }\n\n\n\n\n\n\n\n}",
  "sourcePath": "C:\\Users\\safac\\Videos\\Blockchain-Based-Property-Registration-main\\contracts\\landContrat.sol",
  "compiler": {
    "name": "solc",
    "version": "0.6.12+commit.27d51765.Emscripten.clang"
  },
  "schemaVersion": "3.4.16",
  "updatedAt": "2024-03-25T09:59:45.648Z",
  "networkType": "ethereum",
  "devdoc": {
    "kind": "dev",
    "methods": {},
    "version": 1
  },
  "userdoc": {
    "kind": "user",
    "methods": {},
    "version": 1
  }
}